:04000000BCEF3EF023
:107CF7004141414141016E01C0C9FF00D0C7A0FE0B
:107D0700D7C9CF01F0015000D01200046E8292044F
:107D1700507EEC3EF0036E02507EEC3EF082820015
:107D2700D01200026E829202507EEC3EF0000E7E70
:107D3700EC3EF0036E8282035000D01200066E8282
:107D47009206507EEC3EF0056E000E076E0BD002D9
:107D5700C0D9FF03C0DAFFDF507EEC3EF0024A03D2
:107D67002A072A00D00450075CD8A0F1D7828212D4
:107D77000000EE17F0130EEE6AE806FDE1F70EF6C7
:107D87006E7C0EF76E000EF86E00EE2AF010EE0510
:107D9700F00900F5CFEEFFE550E150FAE1000EF8EB
:107DA7006E00012BEF3FF01A0E016EF80EE82EFE63
:107DB700D7012EFCD700D01A0E016EF80EE82EFE62
:107DC700D7012EFCD700D01A0E016EF80EE82EFE52
:107DD700D7012EFCD700D01A0E016EF80EE82EFE42
:107DE700D7012EFCD700D01A0E016EF80EE82EFE32
:107DF700D7012EFCD700D01200036E3F0EC7160026
:107E07000EC66E0350C6120250C71205D0C78C1398
:107E1700D0C78CC68810D00150000AD8B4F7D70253
:107E27000AD8B4F6D7010AD8B4F4D705D0928A9302
:107E3700820AD0939208D00350040AD8B4F7D70126
:107E47000AD8B4F5D7F6D79380949EC68A120094C1
:107E57009C9292010E0F6E010E106ED388D38AD3B7
:107E67008C0F0EC112F28E949094929484939293F5
:107E770080949E808295EC3FF0000E146E000E13E6
:107E87006ED7EC3EF000D0000E146E000E136E009D
:107E97000E126E000E116E12BE08D01250F4E11EC3
:107EA7000E115CD8B0F0D701D0EED7829C000E1629
:107EB7006E000E156E0AD01A0E0E6EF80EE82EFE24
:107EC700D70E2EFCD700D0154A162A1350155C166C
:107ED70050800A0E6E1450800A0E58D8A0ECD78234
:107EE7008C000E166E000E156E0AD01A0E0E6EF866
:107EF7000EE82EFED70E2EFCD700D0154A162A13F1
:107F070050155C1650800A0E6E1450800A0E58D811
:107F1700A0ECD7134A142A114A122ABDD7B4D700A6
:107F2700EF00F0000E086E000E016E000E026E02EA
:107F37000E00EC3FF08280828282902A0E026E0051
:107F47000E036E050E046E300EA2EC3EF02A0E02F2
:107F57006E000E036E050E046E2A0EA2EC3EF07341
:107F67000E026E500E89EC3EF0060E026E3D0E8933
:107F7700EC3EF03F0E026E3C0E89EC3EF03F0E02E7
:107F87006E210E89EC3EF0010E026E220E89EC3E48
:107F9700F0120E026E240E89EC3EF0280E026E25BA
:107FA7000E89EC3EF0200E026E310E89EC3EF02079
:107FB7000E026E320E89EC3EF0070E026E260E8917
:107FC700EC3EF0000E026EE20E89EC3EF0000E026F
:107FD7006EE10E89EC3EF0D85095EC3EF0086E0845
:107FE700C002F0D850200F89EC3EF0030E026E233A
:0A7FF7000E89EC3EF082801200FFBC
:020000040020DA
:08000000FFFFFFFFFFFFFFFF00
:020000040030CA
:0E000000010B1F1FFF8385FF0FC00FE00F4095
:00000001FF
