:0400000016EF3BF0CC
:1074C900414141414182900E0E026E200E85EC3AF7
:1074D900F082801200016E01C0C9FF00D0C7A0FE72
:1074E900D7C9CF01F0015000D012008292C96800BB
:1074F900D0C7A0FED7C9CF01F08282015000D012B7
:1075090000046E829204506FEC3AF0036E02506FE1
:10751900EC3AF0828200D01200026E829202506F21
:10752900EC3AF0000E6FEC3AF0036E8282035000E1
:10753900D0120029EC3DF029EC3DF029EC3DF02971
:10754900EC3DF029EC3DF029EC3DF029EC3DF0CA89
:10755900EC3BF01200000E016E92908990040EE847
:107569002EFED792908980060EE82EFED7928000D3
:107579000E80B0010E016E240EE82EFED700D00158
:107589005000D01200066E829206506FEC3AF00558
:107599006E000E076E0BD002C0D9FF03C0DAFFDF01
:1075A900506FEC3AF0024A032A072A00D004500728
:1075B9005CD8A0F1D782821200026E000E046E0020
:1075C9000E036E04BE08D0045010E1080E035CD807
:1075D900B00CD001D00AD00250010B31EC3BF0D8ED
:1075E900900232034A042AEDD700D01200010E019D
:1075F9006E92908990F00E00F0E82EFDD789802ACE
:107609000EE82EFED700D09280000E80B0010E0148
:107619006ED00E00F0E82EFDD792908980015000BF
:10762900D0120000EE2EF0130EEE6AE806FDE1C955
:107639000EF66E740EF76E000EF86E00EE41F01045
:10764900EE05F00900F5CFEEFFE550E150FAE10053
:107659000EF86E00017AEF3DF0016E0104D8A40B1B
:10766900D092908990040EE82EFED7929089802AB4
:107679000EE82EFED70AD092908990280EE82EFEA9
:10768900D792908980060EE82EFED700D000D0123E
:1076990000066E829206506FEC3AF0056E000E07F6
:1076A9006E0ED00750010DF3500224D96EF4500329
:1076B90020DA6EFF0E6FEC3AF0DF6E072A00D00475
:1076C90050075CD8A0EED782821200000E0C6E0A19
:1076D900AE07D0096C0A1ED8B00A2A010E0C6E003A
:1076E900D009C001F00AC002F0036A8E0E046E0CC4
:1076F900C005F0D2EC3DF001C009F002C00AF00368
:10770900C00BF000D01200000E026E000E046E00D5
:107719000E036E04BE08D0045011E1080E035CD8B4
:10772900B00DD001D00BD0D8900232AFEC3AF000B6
:1077390009D8A4028E034A042AECD700D0025000CB
:10774900D01200FBEC3AF00009D8A41ED0550EE186
:10775900EC3AF0000E086E000E076E08BE08D0085D
:107769005013E1080E075CD8B00FD001D00DD00737
:10777900500524D96E08500620DA6EDF50E1EC3A44
:10778900F0074A082AEAD700D012001A0E016EF84B
:107799000EE82EFED7012EFCD700D01A0E016EF886
:1077A9000EE82EFED7012EFCD700D01A0E016EF876
:1077B9000EE82EFED7012EFCD700D01A0E016EF866
:1077C9000EE82EFED7012EFCD700D01A0E016EF856
:1077D9000EE82EFED7012EFCD700D01200036E3F13
:1077E9000EC716000EC66E0350C6120250C7120508
:1077F900D0C78C13D0C78CC68810D00150000AD8C6
:10780900B4F7D7020AD8B4F6D7010AD8B4F4D70521
:10781900D0928A93820AD0939208D00350040AD84E
:10782900B4F7D7010AD8B4F5D7F6D79380949EC692
:107839008A1200000E066E020E066401D014D006EC
:1078490050010D3E0EF324D96E000EF420DA6E06B7
:1078590050010DF3500424E16EF4500520E26EDF6F
:10786900CFE7FF062AE8D7030E066E1F0E0664014E
:10787900D00CD00650010DF3500424D96EF45005F4
:1078890020DA6E000EDF6E062AF0D71200000E0213
:107899006EE10E85EC3AF07AEC3AF00E6E0EC0020B
:1078A900F0270E85EC3AF008C002F009C003F02079
:1078B9000E046EA00EC7EC3AF08280000E0D6E0029
:1078C9000E0C6E0DBE08D0D00E0C5C070E0D58D8EC
:1078D900B005D001D003D00C4A0D2AF3D782907A93
:1078E900EC3AF00E6E0EAC15D0400E026E270E85E6
:1078F900EC3AF00AC002F00BC003F0020E046E610C
:107909000E4DEC3BF0000E026EE20E85EC3AF001F2
:107919000E02D0000E00D01200000E066E04AE0753
:10792900D0036C041ED8B0042A010E066E00D002E2
:10793900AE07D0016C021ED8B0022A010E061A0049
:10794900D0000E086E000E076E03500410D8B42143
:10795900D0010E056E05D0D89003360436052A00ED
:10796900D004BE02D0F8D700D0D890073608360325
:1079790050015C04500258D8A006D00350015E049F
:1079890050025A078000D0D89004320332052EECF9
:10799900D700D00650D8B405D0076C081ED8B00857
:1079A9002A00D007C001F008C002F000D012002858
:1079B9006E28501F6E206A1FC005F020C006F0A671
:1079C900EC3BF0440EE1EC3AF09EEC3AF0FBEC3A79
:1079D900F028501F6E206A1FC005F020C006F0A6CF
:1079E900EC3BF0BE0EE1EC3AF088EC3BF0246E88FB
:1079F900EC3BF0256E25C026F0276A2650276E2617
:107A09006A2450261226C009F027C00AF06AEC3B06
:107A1900F009C00DF00AC00EF00BC00FF0000E10F7
:107A29006E800E116E3D0E126EA0EC3EF00DC0215F
:107A3900F00EC022F00FC023F021C01CF022C01D9F
:107A4900F023C01EF000D012001A0E016EF80EE8E5
:107A59002EFED7012EFCD700D01A0E016EF80EE8C3
:107A69002EFED7012EFCD700D01A0E016EF80EE8B3
:107A79002EFED7012EFCD700D01A0E016EF80EE8A3
:107A89002EFED7012EFCD700D01A0E016EF80EE893
:107A99002EFED7012EFCD700D01A0E016EF80EE883
:107AA9002EFED7012EFCD700D01A0E016EF80EE873
:107AB9002EFED7012EFCD700D01A0E016EF80EE863
:107AC9002EFED7012EFCD700D01A0E016EF80EE853
:107AD9002EFED7012EFCD700D01A0E016EF80EE843
:107AE9002EFED7012EFCD700D012009292010E0073
:107AF90001A16F010E0001A26FD388D38AD38C0F25
:107B09000EC112F28E9490949294849392938094DD
:107B19009E808235EC3EF0CAEC3BF067EC3AF0FB14
:107B2900EC3AF00001A16F0001A1510001D8A400B5
:107B3900EF00F01CEC3FF00001A06F00D02E0EDC2E
:107B4900EC3CF01CC03EF01DC03FF01EC040F03EB2
:107B5900C001F03FC002F040C003F0800E046E0087
:107B69000E056E1EEC3CF0800E086E000E096E606C
:107B79000E0A6E000E0B6E4BEC3CF00001A26F007A
:107B890001A2510001D8B402D0808202D0809200B3
:107B9900D09EEC3AF0D3D700EF00F00450D8B405EA
:107BA900D0015002100310D8A40ED0000E016E00AF
:107BB9000E026E000E036E53D006D0042AD890032D
:107BC900320232013200D0000E0114066E000E029C
:107BD90014076EFE0E0314086E065007100810D81D
:107BE900B40ED0EBD70CD0042A010E0126000E02E8
:107BF90022000E0322D89003320232013200D00053
:107C09000E0114066E000E0214076EFF0E0314080F
:107C19006E065007100810D8B408D0E5D706D0046E
:107C290006D89001360236033600D002BE04D002CF
:107C39000E0460F5D700D004B002D0029E00D0D85F
:107C4900900432045003120550D8B402D0038E00B8
:107C5900D001C001F002C002F003C003F000D0124D
:107C690000000E086E000E016E000E026E020EF389
:107C7900EC3BF0828082828290410E026E000E03FC
:107C89006E050E046E300EC7EC3AF0410E026E001E
:107C99000E036E050E046E2A0EC7EC3AF0730E023F
:107CA9006E500E85EC3AF0060E026E3D0E85EC3AEA
:107CB900F03F0E026E3C0E85EC3AF03F0E026E214B
:107CC9000E85EC3AF0010E026E220E85EC3AF012A6
:107CD9000E026E240E85EC3AF0280E026E250E85F2
:107CE900EC3AF0200E026E310E85EC3AF0200E02CD
:107CF9006E320E85EC3AF0070E026E260E85EC3ACE
:107D0900F0000E026EE20E85EC3AF0000E026EE112
:107D19000E85EC3AF0D85091EC3AF0086E08C002A2
:107D2900F0D850200F85EC3AF0030E026E230E8531
:107D3900EC3AF0828012000FC013F0146A156A0E33
:107D490034133601E314801350166E1650D8A4026A
:107D5900D00ED06CD012C013F0146A156A11341306
:107D69003601E3148013501B6E1B50D8A407D000B2
:107D79000E0D6E000E0E6E000E0F6E58D01B507B4E
:107D89000F16260FC01BF012501B1A800E1B160E61
:107D99008E118EFF0E1016FF0E1116000E12160010
:107DA9000E176E000E186E000E196E070E1A6E0071
:107DB900D00DA007D01050172611501822125019B3
:107DC9002200D0D8900F320E320D32D890103611D1
:107DD9003612361A2EEDD700D0090E1A6E00D00DC4
:107DE900A007D0105017261150182212501922003E
:107DF900D0D8900F320E320D32D89019321832176E
:107E0900321A2EEDD700D017C001F018C002F019B0
:107E1900C003F016C004F01BC005F0D2EC3DF00120
:107E2900C00DF002C00EF003C00FF000D012000028
:107E39000E156E000E1A6E000E196E1ABE08D01AB3
:107E49005005E1020E195CD8B0D3D001D0D1D001D0
:107E59000E176E000E1C6E000E1B6E1CBE08D01C89
:107E69005012E1080E1B5CD8B00ED001D00CD00D19
:107E79000E1B24D96E000E1C20DA6E000EDF6E1B5D
:107E89004A1C2AEBD700D0FBEC3AF00009D8B4021F
:107E9900D021D0B0D0F00EE1EC3AF0000E216E0105
:107EA9000E206E000E166E5DD0000E186E000E1DAF
:107EB9006EAFEC3AF0E806D8A402D01D8200D0AF2C
:107EC900EC3AF0E806D8A402D01D8000D0030E1DBC
:107ED90018D8A402D0000E8ED01D50D8B403D0D823
:107EE900901D300BD01550096E0A6A2050091807E9
:107EF900E121500A18D8A403D0010E186E05D0004C
:107F09000E186E20C016F000D0185031EC3BF0016D
:107F19000E176E20C009F0FF0E0926070E09160973
:107F2900280A6E02D0D89017360A2EFCD71804D822
:107F3900A415D0FF0E2024016EFF0E2120026E0031
:107F49000E046E080E036E91EC3CF00D0E0124D95F
:107F59006E000E0220DA6E1750DF1200D0204A217F
:107F69002A00D021BEA1D7215004E1410E205CD8BE
:107F7900A09BD716C015F0000E1F6E000E1E6E1FB7
:107F8900BE08D01F502DE1080E1E5CD8B029D001C3
:107F9900D027D00D0E1E24D96E000E1F20DA6E19BF
:107FA900C009F01AC00AF0D89009360A36D89009E3
:107FB900360A36D89009360A362E0E0B6E000E0C8C
:107FC9006E09500B260A500C221E500B24E16E1F1D
:107FD900500C20E26EDFCFE7FF1E4A1F2AD0D700E0
:107FE900D0194A1A2A1ABE33D71A5002E12AD700E1
:087FF900D0010E00D01200FFC0
:020000040020DA
:08000000FFFFFFFFFFFFFFFF00
:020000040030CA
:0E000000010B1F1FFF8385FF0FC00FE00F4095
:00000001FF
