:0400000020EF3CF0C1
:1078400000EE33F0100EEE6AE806FDE10001C4EF31
:107850003CF0ECEC3DF0ECEC3DF0ECEC3DF0ECEC15
:107860003DF0ECEC3DF0ECEC3DF0ECEC3DF02BECC5
:107870003DF01200000E016E94908B900A0EE82EDF
:10788000FED794908B800F0EE82EFED79480000ECA
:1078900082B0010E016E5B0EE82EFED700D00150C3
:1078A00000D01200026E000E046E000E036E04BEC5
:1078B00008D0045010E1080E035CD8B00CD001D001
:1078C0000AD00250010B6CEC3CF0D8900232034A13
:1078D000042AEDD700D01200016E0104D8A40BD009
:1078E00094908B900A0EE82EFED794908B806A0EAF
:1078F000E82EFED70AD094908B90640EE82EFED727
:1079000094908B80100EE82EFED700D000D012008D
:10791000000E0C6E0AAE07D0096C0A1ED8B00A2AF7
:10792000010E0C6E00D009C001F00AC002F0036A1B
:107930008E0E046E0CC005F03DEC3EF001C009F067
:1079400002C00AF003C00BF000D01200000E026E5D
:10795000000E046E000E036E04BE08D0045011E148
:10796000080E035CD8B00DD001D00BD0D8900232F5
:107970003AEC3CF00009D8A4028E034A042AECD762
:1079800000D0025000D01200FC0ED316C180C1827C
:10799000C184C186F28E010E326EE4EC3CF0326E90
:1079A0003250D8A400EF00F01CEC3FF0316E00D054
:1079B000330E9FEC3DF01CC02EF01DC02FF01EC0FA
:1079C00030F0F6D700EF00F0010E026E94908B902D
:1079D000040E016E1C0EE82EFED7012EFCD700D03F
:1079E0008B806A0EE82EFED700D09480000E82B005
:1079F000010E026E030E016EB20EE82EFED7012EAE
:107A0000FCD700D094908B80025000D01200E4ECA0
:107A10003CF00009D8A41ED0550E52EC3CF0000EEC
:107A2000086E000E076E08BE08D0085013E1080E5D
:107A3000075CD8B00FD001D00DD007500524D96E07
:107A400008500620DA6EDF5052EC3CF0074A082A54
:107A5000EAD700D01200410E016EEE0EE82EFED7DE
:107A6000012EFCD700D0410E016EEE0EE82EFED79F
:107A7000012EFCD700D0410E016EEE0EE82EFED78F
:107A8000012EFCD700D0410E016EEE0EE82EFED77F
:107A9000012EFCD700D0410E016EEE0EE82EFED76F
:107AA000012EFCD700D01200000E066E04AE07D0E7
:107AB000036C041ED8B0042A010E066E00D002AE7C
:107AC00007D0016C021ED8B0022A010E061A00D09F
:107AD000000E086E000E076E03500410D8B421D0BB
:107AE000010E056E05D0D89003360436052A00D065
:107AF00004BE02D0F8D700D0D8900736083603501D
:107B0000015C04500258D8A006D00350015E045016
:107B1000025A078000D0D89004320332052EECD7E9
:107B200000D00650D8B405D0076C081ED8B0082A7B
:107B300000D007C001F008C002F000D01200286E8B
:107B400028501F6E206A1FC005F020C006F007EC09
:107B50003DF0440E52EC3CF029EC3CF0E4EC3CF0FF
:107B600028501F6E206A1FC005F020C006F007ECE9
:107B70003DF0BE0E52EC3CF0A6EC3CF0246EA6ECC0
:107B80003CF0256E25C026F0276A2650276E266A0F
:107B90002450261226C009F027C00AF088EC3CF0D9
:107BA00009C00DF00AC00EF00BC00FF0000E106EF1
:107BB000800E116E3D0E126EA0EC3EF00DC021F055
:107BC0000EC022F00FC023F021C01CF022C01DF017
:107BD00023C01EF000D01200410E016EEE0EE82E02
:107BE000FED7012EFCD700D0410E016EEE0EE82E1E
:107BF000FED7012EFCD700D0410E016EEE0EE82E0E
:107C0000FED7012EFCD700D0410E016EEE0EE82EFD
:107C1000FED7012EFCD700D0410E016EEE0EE82EED
:107C2000FED7012EFCD700D0410E016EEE0EE82EDD
:107C3000FED7012EFCD700D0410E016EEE0EE82ECD
:107C4000FED7012EFCD700D0410E016EEE0EE82EBD
:107C5000FED7012EFCD700D0410E016EEE0EE82EAD
:107C6000FED7012EFCD700D0410E016EEE0EE82E9D
:107C7000FED7012EFCD700D012000450D8B405D096
:107C8000015002100310D8A40ED0000E016E000E99
:107C9000026E000E036E53D006D0042AD890033231
:107CA0000232013200D0000E0114066E000E0214E2
:107CB000076EFE0E0314086E065007100810D8B4A5
:107CC0000ED0EBD70CD0042A010E0126000E0222A2
:107CD000000E0322D89003320232013200D0000E8F
:107CE0000114066E000E0214076EFF0E0314086ED8
:107CF000065007100810D8B408D0E5D706D00406FF
:107D0000D89001360236033600D002BE04D0020EEF
:107D10000460F5D700D004B002D0029E00D0D89005
:107D20000432045003120550D8B402D0038E00D0A0
:107D300001C001F002C002F003C003F000D0120045
:107D40000FC013F0146A156A0E34133601E3148061
:107D50001350166E1650D8A402D00ED06CD012C09C
:107D600013F0146A156A1134133601E314801350AA
:107D70001B6E1B50D8A407D0000E0D6E000E0E6EA9
:107D8000000E0F6E58D01B507B0F16260FC01BF035
:107D900012501B1A800E1B160E8E118EFF0E10161F
:107DA000FF0E1116000E1216000E176E000E186E42
:107DB000000E196E070E1A6E00D00DA007D01050DD
:107DC0001726115018221250192200D0D8900F32C5
:107DD0000E320D32D8901036113612361A2EEDD7DB
:107DE00000D0090E1A6E00D00DA007D01050172633
:107DF000115018221250192200D0D8900F320E3292
:107E00000D32D8901932183217321A2EEDD700D011
:107E100017C001F018C002F019C003F016C004F03A
:107E20001BC005F03DEC3EF001C00DF002C00EF0AD
:107E300003C00FF000D01200000E156E000E1A6E77
:107E4000000E196E1ABE08D01A5005E1020E195C18
:107E5000D8B0D3D001D0D1D0010E176E000E1C6E59
:107E6000000E1B6E1CBE08D01C5012E1080E1B5CDD
:107E7000D8B00ED001D00CD00D0E1B24D96E000E40
:107E80001C20DA6E000EDF6E1B4A1C2AEBD700D0D6
:107E9000E4EC3CF00009D8B402D021D0B0D0F00E10
:107EA00052EC3CF0000E216E010E206E000E166E9C
:107EB0005DD0000E186E000E1D6E3AEC3CF0E80628
:107EC000D8A402D01D8200D03AEC3CF0E806D8A439
:107ED00002D01D8000D0030E1D18D8A402D0000EC1
:107EE0008ED01D50D8B403D0D8901D300BD0155073
:107EF000096E0A6A2050091807E121500A18D8A40F
:107F000003D0010E186E05D0000E186E20C016F0BA
:107F100000D018506CEC3CF0010E176E20C009F038
:107F2000FF0E0926070E091609280A6E02D0D890FE
:107F300017360A2EFCD71804D8A415D0FF0E20241B
:107F4000016EFF0E2120026E000E046E080E036EFD
:107F500054EC3DF00D0E0124D96E000E0220DA6EB5
:107F60001750DF1200D0204A212A00D021BEA1D70D
:107F7000215004E1410E205CD8A09BD716C015F01B
:107F8000000E1F6E000E1E6E1FBE08D01F502DE18A
:107F9000080E1E5CD8B029D001D027D00D0E1E24AB
:107FA000D96E000E1F20DA6E19C009F01AC00AF04F
:107FB000D89009360A36D89009360A36D89009364C
:107FC0000A36330E0B6E000E0C6E09500B260A504B
:107FD0000C221E500B24E16E1F500C20E26EDFCFEE
:107FE000E7FF1E4A1F2AD0D700D0194A1A2A1ABE04
:107FF00033D71A5002E12AD700D0010E00D0120068
:020000040020DA
:08000000FFFFFFFFFFFFFFFF00
:020000040030CA
:0E000000040C1F1FFF8385FF0FC00FE00F4091
:00000001FF
