:04000000F5EF3AF0EE
:1074BD00414141414182900E0E026E200E7FEC3A09
:1074CD00F082801200016E01C0C9FF00D0C7A0FE7E
:1074DD00D7C9CF01F0015000D012008292C96800C7
:1074ED00D0C7A0FED7C9CF01F08282015000D012C3
:1074FD0000046E8292045069EC3AF0036E025069FA
:10750D00EC3AF0828200D01200026E829202506933
:10751D00EC3AF0000E69EC3AF0036E8282035000F3
:10752D00D012002BEC3DF02BEC3DF02BEC3DF02B75
:10753D00EC3DF02BEC3DF02BEC3DF02BEC3DF0CC8D
:10754D00EC3BF01200000E016E929089900A0EE84D
:10755D002EFED7929089800F0EE82EFED7928000D6
:10756D000E80B0010E016E5B0EE82EFED700D0012D
:10757D005000D01200066E8292065069EC3AF0056A
:10758D006E000E076E0BD002C0D9FF03C0DAFFDF0D
:10759D005069EC3AF0024A032A072A00D00450073A
:1075AD005CD8A0F1D782821200026E000E046E002C
:1075BD000E036E04BE08D0045010E1080E035CD813
:1075CD00B00CD001D00AD00250010B10EC3BF0D81A
:1075DD00900232034A042AEDD700D0120000EE2E9D
:1075ED00F0130EEE6AE806FDE1BD0EF66E740EF7B1
:1075FD006E000EF86E00EE41F010EE05F00900F58C
:10760D00CFEEFFE550E150FAE1000EF86E00017C7F
:10761D00EF3DF0016E0104D8A40BD0929089900A31
:10762D000EE82EFED7929089806A0EE82EFED70ABC
:10763D00D092908990640EE82EFED792908980109A
:10764D000EE82EFED700D000D01200066E829206F4
:10765D005069EC3AF0056E000E076E0ED007500122
:10766D000DF3500224D96EF4500320DA6EFF0E692B
:10767D00EC3AF0DF6E072A00D00450075CD8A0EE7C
:10768D00D782821200000E0C6E0AAE07D0096C0A6A
:10769D001ED8B00A2A010E0C6E00D009C001F00AE6
:1076AD00C002F0036A8E0E046E0CC005F0D2EC3DE4
:1076BD00F001C009F002C00AF003C00BF000D012B7
:1076CD0000000E026E000E046E000E036E04BE0866
:1076DD00D0045011E1080E035CD8B00DD001D00BD1
:1076ED00D0D8900232A9EC3AF00009D8A4028E034A
:1076FD004A042AECD700D0025000D01200010E022D
:10770D006E92908990040E016E1C0EE82EFED7012C
:10771D002EFCD700D089806A0EE82EFED700D092BD
:10772D0080000E80B0010E026E030E016EB20EE8E7
:10773D002EFED7012EFCD700D092908980025000EA
:10774D00D0120085EC3BF00009D8A41ED0550EDBFD
:10775D00EC3AF0000E086E000E076E08BE08D00859
:10776D005013E1080E075CD8B00FD001D00DD00733
:10777D00500524D96E08500620DA6EDF50DBEC3A46
:10778D00F0074A082AEAD700D01200410E016EEE2A
:10779D000EE82EFED7012EFCD700D0410E016EEE65
:1077AD000EE82EFED7012EFCD700D0410E016EEE55
:1077BD000EE82EFED7012EFCD700D0410E016EEE45
:1077CD000EE82EFED7012EFCD700D0410E016EEE35
:1077DD000EE82EFED7012EFCD700D01200036E3F0F
:1077ED000EC716000EC66E0350C6120250C7120504
:1077FD00D0C78C13D0C78CC68810D00150000AD8C2
:10780D00B4F7D7020AD8B4F6D7010AD8B4F4D7051D
:10781D00D0928A93820AD0939208D00350040AD84A
:10782D00B4F7D7010AD8B4F5D7F6D79380949EC68E
:10783D008A1200000E066E020E066401D014D006E8
:10784D0050010D3E0EF324D96E000EF420DA6E06B3
:10785D0050010DF3500424E16EF4500520E26EDF6B
:10786D00CFE7FF062AE8D7030E066E1F0E0664014A
:10787D00D00CD00650010DF3500424D96EF45005F0
:10788D0020DA6E000EDF6E062AF0D71200000E020F
:10789D006EE10E7FEC3AF074EC3AF00E6E0EC00213
:1078AD00F0270E7FEC3AF008C002F009C003F0207B
:1078BD000E046EA00EC1EC3AF08280000E0D6E002B
:1078CD000E0C6E0DBE08D0D00E0C5C070E0D58D8E8
:1078DD00B005D001D003D00C4A0D2AF3D782907495
:1078ED00EC3AF00E6E0EAC15D0400E026E270E7FE8
:1078FD00EC3AF00AC002F00BC003F0020E046E6108
:10790D000E2CEC3BF0000E026EE20E7FEC3AF00115
:10791D000E02D0000E00D01200000E066E04AE074F
:10792D00D0036C041ED8B0042A010E066E00D002DE
:10793D00AE07D0016C021ED8B0022A010E061A0045
:10794D00D0000E086E000E076E03500410D8B4213F
:10795D00D0010E056E05D0D89003360436052A00E9
:10796D00D004BE02D0F8D700D0D890073608360321
:10797D0050015C04500258D8A006D00350015E049B
:10798D0050025A078000D0D89004320332052EECF5
:10799D00D700D00650D8B405D0076C081ED8B00853
:1079AD002A00D007C001F008C002F000D012002854
:1079BD006E28501F6E206A1FC005F020C006F0A86B
:1079CD00EC3BF0440EDBEC3AF098EC3AF085EC3BF6
:1079DD00F028501F6E206A1FC005F020C006F0A8C9
:1079ED00EC3BF0BE0EDBEC3AF067EC3BF0246E673F
:1079FD00EC3BF0256E25C026F0276A2650276E2613
:107A0D006A2450261226C009F027C00AF049EC3B23
:107A1D00F009C00DF00AC00EF00BC00FF0000E10F3
:107A2D006E800E116E3D0E126EA0EC3EF00DC0215B
:107A3D00F00EC022F00FC023F021C01CF022C01D9B
:107A4D00F023C01EF000D01200410E016EEE0EE8C4
:107A5D002EFED7012EFCD700D0410E016EEE0EE8A2
:107A6D002EFED7012EFCD700D0410E016EEE0EE892
:107A7D002EFED7012EFCD700D0410E016EEE0EE882
:107A8D002EFED7012EFCD700D0410E016EEE0EE872
:107A9D002EFED7012EFCD700D0410E016EEE0EE862
:107AAD002EFED7012EFCD700D0410E016EEE0EE852
:107ABD002EFED7012EFCD700D0410E016EEE0EE842
:107ACD002EFED7012EFCD700D0410E016EEE0EE832
:107ADD002EFED7012EFCD700D0410E016EEE0EE822
:107AED002EFED7012EFCD700D012009292010E006F
:107AFD0001A16F010E0001A26FFC0ED3160F0EC176
:107B0D0012F28E94909492948493929380949E35D5
:107B1D00EC3EF0CCEC3BF061EC3AF085EC3BF00048
:107B2D0001A16F0001A1510001D8A400EF00F01CCC
:107B3D00EC3FF00001A06F00D02E0EDEEC3CF01CEF
:107B4D00C03EF01DC03FF01EC040F03EC001F03FF2
:107B5D00C002F040C003F0800E046E000E056E20D2
:107B6D00EC3CF0800E086E000E096E600E0A6E0081
:107B7D000E0B6E4DEC3CF00001A26F0001A2510006
:107B8D0001D8B402D0808202D0809200D098EC3A15
:107B9D00F0D3D700EF00F00450D8B405D001500257
:107BAD00100310D8A40ED0000E016E000E026E0050
:107BBD000E036E53D006D0042AD890033202320140
:107BCD003200D0000E0114066E000E0214076EFE78
:107BDD000E0314086E065007100810D8B40ED0EB23
:107BED00D70CD0042A010E0126000E0222000E032E
:107BFD0022D89003320232013200D0000E01140659
:107C0D006E000E0214076EFF0E0314086E06500769
:107C1D00100810D8B408D0E5D706D00406D89001C6
:107C2D00360236033600D002BE04D0020E0460F5D3
:107C3D00D700D004B002D0029E00D0D890043204F8
:107C4D005003120550D8B402D0038E00D001C001EC
:107C5D00F002C002F003C003F000D01200000E08C5
:107C6D006E000E016E000E026E020EF5EC3BF08200
:107C7D008082828290410E026E000E036E050E040C
:107C8D006E300EC1EC3AF0410E026E000E036E0521
:107C9D000E046E2A0EC1EC3AF0730E026E500E7F7A
:107CAD00EC3AF0060E026E3D0E7FEC3AF03F0E02FE
:107CBD006E3C0E7FEC3AF03F0E026E210E7FEC3AD9
:107CCD00F0010E026E220E7FEC3AF0120E026E24BF
:107CDD000E7FEC3AF0280E026E250E7FEC3AF02066
:107CED000E026E310E7FEC3AF0200E026E320E7FD8
:107CFD00EC3AF0070E026E260E7FEC3AF0000E0203
:107D0D006EE20E7FEC3AF0000E026EE10E7FEC3A61
:107D1D00F0D8508BEC3AF0086E08C002F0D8502025
:107D2D000F7FEC3AF0030E026E230E7FEC3AF082D9
:107D3D008012000FC013F0146A156A0E3413360149
:107D4D00E314801350166E1650D8A402D00ED06CCA
:107D5D00D012C013F0146A156A1134133601E314EE
:107D6D008013501B6E1B50D8A407D0000E0D6E0053
:107D7D000E0E6E000E0F6E58D01B507B0F16260F79
:107D8D00C01BF012501B1A800E1B160E8E118EFF8B
:107D9D000E1016FF0E1116000E1216000E176E00A5
:107DAD000E186E000E196E070E1A6E00D00DA0077C
:107DBD00D010501726115018221250192200D0D869
:107DCD00900F320E320D32D8901036113612361AFF
:107DDD002EEDD700D0090E1A6E00D00DA007D010D1
:107DED00501726115018221250192200D0D8900F7A
:107DFD00320E320D32D8901932183217321A2EED4A
:107E0D00D700D017C001F018C002F019C003F0164A
:107E1D00C004F01BC005F0D2EC3DF001C00DF00226
:107E2D00C00EF003C00FF000D01200000E156E0052
:107E3D000E1A6E000E196E1ABE08D01A5005E10208
:107E4D000E195CD8B0D3D001D0D1D0010E176E0071
:107E5D000E1C6E000E1B6E1CBE08D01C5012E108CD
:107E6D000E1B5CD8B00ED001D00CD00D0E1B24D93A
:107E7D006E000E1C20DA6E000EDF6E1B4A1C2AEB04
:107E8D00D700D085EC3BF00009D8B402D021D0B09A
:107E9D00D0F00EDBEC3AF0000E216E010E206E00DC
:107EAD000E166E5DD0000E186E000E1D6EA9EC3A0A
:107EBD00F0E806D8A402D01D8200D0A9EC3AF0E873
:107ECD0006D8A402D01D8000D0030E1D18D8A40220
:107EDD00D0000E8ED01D50D8B403D0D8901D300BCD
:107EED00D01550096E0A6A2050091807E121500A71
:107EFD0018D8A403D0010E186E05D0000E186E20F0
:107F0D00C016F000D0185010EC3BF0010E176E208B
:107F1D00C009F0FF0E0926070E091609280A6E0280
:107F2D00D0D89017360A2EFCD71804D8A415D0FF38
:107F3D000E2024016EFF0E2120026E000E046E082D
:107F4D000E036E93EC3CF00D0E0124D96E000E0263
:107F5D0020DA6E1750DF1200D0204A212A00D021DE
:107F6D00BEA1D7215004E1410E205CD8A09BD716AD
:107F7D00C015F0000E1F6E000E1E6E1FBE08D01F26
:107F8D00502DE1080E1E5CD8B029D001D027D00DA0
:107F9D000E1E24D96E000E1F20DA6E19C009F01ABC
:107FAD00C00AF0D89009360A36D89009360A36D864
:107FBD009009360A362E0E0B6E000E0C6E09500B04
:107FCD00260A500C221E500B24E16E1F500C20E28D
:107FDD006EDFCFE7FF1E4A1F2AD0D700D0194A1AED
:107FED002A1ABE33D71A5002E12AD700D0010E004B
:047FFD00D01200FF9F
:020000040020DA
:08000000FFFFFFFFFFFFFFFF00
:020000040030CA
:0E000000040C1F1FFF8385FF0FC00FE00F4091
:00000001FF
